:100000000C943E060C9466060C9466060C946606E8
:100010000C9466060C9466060C9466060C946606B0
:100020000C9466060C9466060C945B180C94C41829
:100030000C9466060C9466060C9466060C94660690
:100040000C9466060C9466060C9466060C94660680
:100050000C9466060C9466060C9466060C94061BBB
:100060000C9466060C94761B0C94501B0C9466063C
:100070000C9466060C9466060C9466060C94660650
:100080000C9466060C9466060C9466060C94660640
:100090000C94A81B0C9466060C9466060C946606D9
:1000A0000C9466060C9466060C94660600407A1062
:1000B000F35A00A0724E18090010A5D4E80000E819
:1000C0007648170000E40B54020000CA9A3B000077
:1000D00000E1F505000080969800000040420F0006
:1000E0000000A08601000000102700000000E803C7
:1000F000000000006400000000000A000000000092
:100100000100000000002C76D888DC674F0823DF50
:10011000C1DFAE59E1B1B796E5E3E453C63AE65123
:10012000997696E8E6C28426EB898C9B62ED407C4A
:100130006FFCEFBC9C9F40F2BAA56FA5F490055AE6
:100140002AF75C936B6CF9676DC11BFCE0E40D470B
:10015000FEF520E6B500D0ED902E0300943577052E
:100160000080841E080000204E0A000000C80C33E6
:100170003333330F986E12831141EF8D2114893B75
:10018000E65516CFFEE6DB18D1844B381BF77C1DF5
:10019000901DA4BBE424203284725E228100C9F148
:1001A00024ECA1E53D2700000000003E5B4F5B3ED4
:1001B0003E6B4F6B3E1C3E7C3E1C183C7E3C181C2C
:1001C000577D571C1C5E7F5E1C00183C1800FFE723
:1001D000C3E7FF0018241800FFE7DBE7FF30483AC9
:1001E000060E2629792926407F050507407F05252B
:1001F0003F5A3CE73C5A7F3E1C1C08081C1C3E7FB3
:1002000014227F22145F5F005F5F06097F017F0079
:100210006689956A606060606094A2FFA294080499
:100220007E040810207E201008082A1C08081C2ABA
:1002300008081E101010100C1E0C1E0C30383E3812
:1002400030060E3E0E06000000000000005F0000B9
:100250000007000700147F147F14242A7F2A12232A
:100260001308646236495620500008070300001C3A
:100270002241000041221C002A1C7F1C2A08083E43
:100280000808008070300008080808080000606056
:100290000020100804023E5149453E00427F4000C4
:1002A00072494949462141494D331814127F10279C
:1002B000454545393C4A49493141211109073649EB
:1002C000494936464949291E0000140000004034BF
:1002D00000000008142241141414141400412214C4
:1002E0000802015909063E415D594E7C1211127CEB
:1002F0007F494949363E414141227F4141413E7F4C
:10030000494949417F090909013E414151737F082B
:1003100008087F00417F41002040413F017F0814D1
:1003200022417F404040407F021C027F7F04081032
:100330007F3E4141413E7F090909063E4151215E10
:100340007F09192946264949493203017F01033FA4
:100350004040403F1F2040201F3F4038403F631433
:1003600008146303047804036159494D43007F4135
:1003700041410204081020004141417F0402010272
:100380000440404040400003070800205454784097
:100390007F284444383844444428384444287F382B
:1003A0005454541800087E090218A4A49C787F08AD
:1003B00004047800447D40002040403D007F102828
:1003C000440000417F40007C047804787C080404E9
:1003D000783844444438FC1824241818242418FC81
:1003E0007C08040408485454542404043F44243C26
:1003F0004040207C1C2040201C3C4030403C442895
:100400001028444C9090907C4464544C440008362E
:10041000410000007700000041360800020102049C
:10042000023C2623263C1EA1A161123A4040207ABC
:100430003854545559215555794122545478422104
:100440005554784020545579400C1E52721239553B
:100450005555593954545459395554545800004538
:100460007C410002457D420001457C407D12111215
:100470007DF0282528F07C545545002054547C54A8
:100480007C0A097F4932494949323A4444443A3264
:100490004A4848303A4141217A3A42402078009D0A
:1004A000A0A07D3D4242423D3D4040403D3C24FFB6
:1004B0002424487E4943662B2FFC2F2BFF0929F665
:1004C00020C0887E090320545479410000447D41B6
:1004D0003048484A32384040227A007A0A0A727D0F
:1004E0000D19317D2629292F28262929292630482A
:1004F0004D4020380808080808080808382F10C898
:10050000ACBA2F102834FA00007B000008142A141B
:100510002222142A14085500550055AA55AA55AA96
:10052000FF55FF55FF000000FF00101010FF0014E2
:100530001414FF001010FF00FF1010F010F014143E
:1005400014FC001414F700FF0000FF00FF1414F463
:1005500004FC141417101F10101F101F1414141F64
:1005600000101010F0000000001F101010101F10DD
:10057000101010F010000000FF10101010101010DC
:100580001010FF10000000FF140000FF00FF00002B
:100590001F10170000FC04F414141710171414F49F
:1005A00004F40000FF00F714141414141414F700DA
:1005B000F7141414171410101F101F141414F4142B
:1005C0001010F010F000001F101F0000001F14009A
:1005D0000000FC140000F010F01010FF10FF1414C5
:1005E00014FF141010101F00000000F010FFFFFF98
:1005F000FFFFF0F0F0F0F0FFFFFF0000000000FF51
:10060000FF0F0F0F0F0F3844443844FC4A4A4A3456
:100610007E02020606027E027E026355494163386D
:1006200044443C04407E201E2006027E020299A51E
:10063000E7A5991C2A492A1C4C7201724C304A4D7C
:100640004D303048784830BC625A463D3E494949B1
:10065000007E0101017E2A2A2A2A2A44445F44445A
:1006600040514A444040444A51400000FF0103E0E9
:1006700080FF000008086B6B083612362436060F20
:10068000090F06000018180000001010003040FF8D
:100690000101001F01011E00191D1712003C3C3C06
:1006A0003C0000000000000103070F1F3F7F008097
:1006B000C0E0F0F8FCFEDB40A4A62EAF2000A1C8ED
:1006C000D300408DAED580A800006000000000007F
:1006D000000000000000000000E00000000000003A
:1006E0000000000000000001E00000000000000029
:1006F00000000000000001F0000000000000000009
:10070000000000000003F0000000000000000000F6
:100710000000000007F000000000000000000000E2
:1007200000000007F80000000000000000000000CA
:1007300000000FF800000003C0007E000001E00090
:100740007F0FF800000003C000FE000001E000FF82
:10075000EFF800000003C000FE000001E000FFFF12
:10076000F800000003C000F00000000F007FFE7FD3
:10077000C0000003C000F00000000F003FFE7FF843
:100780003FF1FBCFFCFEF3BC3DEFE01FFE7FFF7FA0
:10079000FBFFDFFEFEFFBC3DEFE01FC6FFFF7FFB60
:1007A000FFDFFEFEFFBC3DEFE00FE3C7FE787BC33B
:1007B000DE1EF0FFBC3DEF0007FF87FC787BC3DE49
:1007C0001EF0F83C3DEF0001FFFFF0007BC3C01EB0
:1007D000F0F03C3DEF0001F37FE03FFBC3CFFEF0C4
:1007E000F03C3DEF0003E33F807FFBC3DFFEF0F012
:1007F0003C3DEF0007E73C00787BC3DE1EF0F03C99
:100800003DEF0007FFBE00787BC3DE1EF0F03C3DED
:10081000EF0007FFFE00787BC3DE1EF0F03C3DEFEB
:10082000000FFFFE007FFBFFDFFEF0F03FFDEFE07B
:100830000FFFFF007FFBFFDFFEF0F03FFDEFE00F5B
:10084000F9FF003E79F9CF9EF0F01F3DE7E01FF180
:10085000FF0000000000000000000000001F80FFFB
:10086000007FFFFFFFFFFFFFFFFFFFE01C007F0097
:100870007FFFFFFFFEB46D888D18E000001F007F32
:10088000FFFFFFFE95AD7DB577E000000F007FFF15
:10089000FFFFFEA5AD9D8D19E0000006007FFFFF64
:1008A000FFFEB5ADEDB57EE0000000000001800068
:1008B00000000000000000000380000000000000B5
:1008C00000000007C000000000000000000007C09A
:1008D0000000000000000000000FC0000000000049
:1008E000000000001FE00000000000000000001FEA
:1008F000E00000000000000000003FE000000000F9
:1009000000000000003FF0000000000000000000B8
:100910007FF0000000000000001FF87FF0000000E2
:10092000000000003FFE7FF0000000000000003FDC
:10093000FF7FF0000000000000001FFFFBE0000050
:1009400000000000000FFFF9FFC0000000000000E1
:100950000FFFF9FFF800000000000007FFF1FFFFA4
:1009600000000000000003FC73FFFF800000000097
:100970000001FE3FFFFF80000000000000FF1E0F8F
:10098000FF000000000000007FFE1FFC00000000D0
:100990000000003FFFFFF8000000000000000FDF34
:1009A000FFE0000000000000001F19FFC000000071
:1009B000000000003F3CFF00000000000000007E3F
:1009C0007CF800000000000000007FFE7C000000BA
:1009D0000000000000FFFFFC00000000000000001D
:1009E000FFFFFE0000000000000000FFFFFE00000F
:1009F000000000000001FFEFFE000000000000000A
:100A000001FFCFFE0000000000000003FF07FE0012
:100A100000000000000003FC07FE000000000000D2
:100A20000003F003FE00000000000000018000FE53
:100A3000000000000000000000007E000000000038
:100A400000000000003E0000000000000000000068
:100A50000C000000000000078000FC000003C00044
:100A60000000078001FC000003C0000000078001B7
:100A7000FC000003C0000000078001E00000001E31
:100A8000000000078001E00000001E007FE3F79FE8
:100A9000F9FDE7787BDFC0FFF7FFBFFDFDFF787B47
:100AA000DFC0FFF7FFBFFDFDFF787BDFC0F0F787FA
:100AB000BC3DE1FF787BDE00F0F787BC3DE1F078DC
:100AC0007BDE0000F787803DE1E0787BDE007FF78A
:100AD000879FFDE1E0787BDE00FFF787BFFDE1E067
:100AE000787BDE00F0F787BC3DE1E0787BDE00F04C
:100AF000F787BC3DE1E0787BDE00F0F787BC3DE1A5
:100B0000E0787BDE00FFF7FFBFFDE1E07FFBDFC0A9
:100B1000FFF7FFBFFDE1E07FFBDFC07CF3F39F3D0C
:100B2000E1E03E7BCFC000000000000000000000BC
:100B300000FFFFFFFFFFFFFFFFFFFFC0FFFFFFFF03
:100B4000FD68DB111A31C0FFFFFFFFFD2B5AFB6A66
:100B5000EFC0FFFFFFFFFD4B5B3B1A33C0FFFFFF02
:100B6000FFFD6B5BDB6AFDC0000000002300260078
:100B700029002C002F00070605040100080A0B0CB1
:100B80000D0900000000240027002A002D0030007D
:100B900000000000250028002B002E003100040476
:100BA0000404040304050202020204030202020216
:100BB00006060606060604040202020404040802ED
:100BC00001104080401020408040800802040180D5
:100BD0004020100201108010204040200000000240
:100BE00000090F0000030401000C000000000000D9
:100BF0000000000000000000000000080B000202DE
:100C00000200000904000001020200000524001097
:100C10000105240101010424020605240600010740
:100C200005810310004009040100020A00000007CA
:100C3000050202400000070583024000000403098A
:100C40000412010002EF0201409A230E000001018C
:100C500002030141646166727569740049747379B5
:100C60004269747379203332753420335620384DFD
:100C7000487A002200FF2100FA1CBD2311241FBE68
:100C8000CFEFDAE0DEBFCDBF24E0A0E1B2E001C0EB
:100C90001D92AC33B207E1F712E0A0E0B1E0E8E664
:100CA000F5E502C005900D92A031B107D9F716E025
:100CB000CDE3D6E004C02197FE010E94C427CC33C7
:100CC000D107C9F70E94A81D0C94A72A0C94000014
:100CD00008959091F402911103C08FEF9FEF089552
:100CE0004FB7F89492E09093E9009091F200292F89
:100CF00030E01216130614F421E030E0232B29F023
:100D000084E68093F3028091F100992339F02091D9
:100D1000F200211103C02BE62093E8004FBF992376
:100D2000E1F290E008952FB7F89483E08093E90012
:100D30009091E800892F807295FF04C09091F20095
:100D400080E4891B2FBF08958091EB0281110DC0B3
:100D500082E08093E70284E08093E8021092EA0246
:100D60001092E90281E08093EB0287EE92E0089511
:100D7000CF93DF931F92CDB7DEB76983DC01ED918E
:100D8000FC910280F381E02D41E050E0BE016F5FF5
:100D90007F4F09950F90DF91CF91089583E0809365
:100DA000E9008091F200882319F08AE38093E8003B
:100DB00008950E94930690E00895FC01848595852E
:100DC00097FD05C02FEF3FEF3587248708950C94DA
:100DD0006906CF93DF93EC018C859D8597FF04C056
:100DE0000E9469069D878C878C859D85DF91CF91B8
:100DF0000895FC018485958597FD0BC09FB7F894F5
:100E000082E08093E9008091F2009FBF90E001961C
:100E100008959FB7F89482E08093E9008091F200F2
:100E20009FBF90E008954091E1025091E20220912D
:100E3000DF023091E00242175307B4F49091E800CA
:100E40009570E1F39091E80092FD19C08093F10054
:100E50008091E1029091E20201968F739927892B8C
:100E600019F48EEF8093E8008091E1029091E20204
:100E700001969093E2028093E10281E0089580E080
:100E80000895DF92EF92FF920F931F93CF93DF931A
:100E9000D82E8A01EB017B01E40EF51ECE15DF058D
:100EA00059F0D7FE12C0FE0184910E9413072196CB
:100EB0008111F4CF0FEF1FEFC801DF91CF911F9188
:100EC0000F91FF90EF90DF9008958881EECF0F9300
:100ED0001F93CF93DF931F92CDB7DEB782E0898354
:100EE00042E450E06BEF7BE080E80E9441070E9403
:100EF000A406DC0112960D911C910115110589F0D3
:100F0000D801ED91FC910280F381E02DBE016F5F6D
:100F10007F4FC801099597FD04C0F8010085118530
:100F2000ECCF89810F90DF91CF911F910F910895A0
:100F300081508F3008F047C0E82FF0E0EE55F84FB1
:100F40000C94C427BF07C307B107B707BB07E30764
:100F5000E307E307C607CC07D007D407DA07E307A0
:100F6000DE07809180008F778093800008958091C4
:100F700080008F7DF9CF80918000877FF5CF84B589
:100F80008F7784BD089584B58F7DFBCF80919000CD
:100F90008F77809390000895809190008F7DF9CF96
:100FA00080919000877FF5CF8091C0008F778093EC
:100FB000C00008958091C0008F7DF9CF8091C2005C
:100FC000877F8093C20008951F93CF93DF93282FCC
:100FD00030E0F901E452F44F8491F901E354F44F05
:100FE000D491F901E256F44FC491CC23A9F0162F05
:100FF00081110E949807EC2FF0E0EE0FFF1FE057E1
:10100000F44FA591B4918FB7F894EC91111108C0E9
:10101000D095DE23DC938FBFDF91CF911F91089590
:10102000DE2BF8CFCF93DF9390E0FC01E354F44F35
:1010300024918256944FFC0184918823C9F090E05A
:10104000880F991FFC01EE57F44FA591B491FC0154
:10105000E057F44FC591D49161110DC09FB7F8943A
:101060008C91209582238C938881282328839FBF8D
:10107000DF91CF910895623051F49FB7F8943C917D
:10108000822F809583238C93E8812E2BEFCF8FB70F
:10109000F894EC912E2B2C938FBFEACF3FB7F894A6
:1010A0008091DB029091DC02A091DD02B091DE0222
:1010B00026B5A89B05C02F3F19F00196A11DB11DB3
:1010C0003FBFBA2FA92F982F8827BC01CD01620FEF
:1010D000711D811D911D43E0660F771F881F991FA9
:1010E0004A95D1F708958F929F92AF92BF92CF9277
:1010F000DF92EF92FF924B015C010E944E086B0160
:101100007C010E944E086C197D098E099F09683E7A
:10111000734081059105A8F321E0821A9108A10886
:10112000B10888EEC80E83E0D81EE11CF11C8114C2
:101130009104A104B10429F7FF90EF90DF90CF90C4
:10114000BF90AF909F908F9008958F929F92AF9293
:10115000BF92CF92DF92EF92FF920F931F93CF93A4
:10116000DF936C017B018A0180910B01882309F4D4
:101170005BC08091F402882309F456C08091E60296
:1011800080FF05C08091E00082608093E000E8016C
:10119000B12C8AEFA82E93E0892E2AE3922E209775
:1011A00011F4BB20D9F10E94930681110AC0AA94C0
:1011B000AA20D1F161E070E080E090E00E94730825
:1011C000EECF8C171D0611F00CF08C2F9FB7F89402
:1011D0008092E9002091E80025FD02C09FBFDFCF8B
:1011E000282F30E0C21BD30BF701815020F0419132
:1011F0004093F100FACFE20EF31EBB2021F0909253
:10120000E800B12CEBCF8091E80085FDE7CF90920C
:10121000E800BB24B394209709F3F3CF84E68093CE
:10122000E502101611063CF081E090E0F601938390
:10123000828310E000E0C801DF91CF911F910F91F0
:10124000FF90EF90DF90CF90BF90AF909F908F90E6
:10125000089508950895AF92BF92CF92DF92EF92D2
:10126000FF920F931F93CF93DF936C017B018B0150
:10127000040F151FEB015E01AE18BF08C017D107A0
:1012800059F06991D601ED91FC910190F081E02D2A
:10129000C6010995892B79F7C501DF91CF911F917F
:1012A0000F91FF90EF90DF90CF90BF90AF90089597
:1012B000FC01538D448D252F30E0842F90E0821B5C
:1012C000930B541710F0CF96089501970895FC01E1
:1012D000918D828D981761F0A28DAE0FBF2FB11D39
:1012E0005D968C91928D9F5F9F73928F90E0089591
:1012F0008FEF9FEF0895FC01918D828D981731F04B
:10130000828DE80FF11D858D90E008958FEF9FEF9E
:1013100008952FB7F8948091F5029091F602A0916C
:10132000F702B091F8022FBF8093550390935603B4
:10133000A0935703B09358038DE493E00E947B0978
:1013400097FF26C02FB7F8948091F5029091F6028E
:10135000A091F702B091F8022FBF40915503509130
:1013600056036091570370915803841B950BA60B8D
:10137000B70B409151035091520360915303709108
:10138000540384179507A607B707B0F28FEF9FEFB6
:101390000895FC01918D228D892F90E0805C9F4FF4
:1013A000821B91098F73992708958DE493E00E9421
:1013B000C90921E0892B09F420E0822F089580E0FB
:1013C00090E0892B29F00E94D50981110C9400002E
:1013D0000895FC01A48DA80FB92FB11DA35ABF4FCA
:1013E0002C91848D90E001968F739927848FA68924
:1013F000B7892C93A089B1898C9182748C93938D39
:10140000848D981306C00288F389E02D80818F7D3A
:1014100080830895EF92FF920F931F93CF93DF93F2
:10142000EC0181E0888F9B8D8C8D981319C0E88921
:10143000F989808185FF14C09FB7F894EE89FF89F0
:101440006083E889F9898081827480839FBF81E00D
:1014500090E0DF91CF911F910F91FF90EF90089551
:10146000F62E0B8D10E00F5F1F4F0F731127E02E2C
:101470008C8D8E110CC00FB607FCFACFE889F98964
:10148000808185FFF5CFCE010E94E909F1CFEB8D78
:10149000EC0FFD2FF11DE35AFF4FF0829FB7F89438
:1014A0000B8FEA89FB8980818062CFCFCF93DF9356
:1014B000EC01888D8823B9F0AA89BB89E889F9896C
:1014C0008C9185FD03C0808186FD0DC00FB607FCA1
:1014D000F7CF8C9185FFF2CF808185FFEDCFCE01D4
:1014E0000E94E909E9CFDF91CF910895EF92FF9231
:1014F0000F931F93CF93DF93EC01EC80FD806E156B
:101500007F050CF070C057FF04C0240F351F50E05A
:1015100040E08E819F81FA01E20FF31F8E179F0733
:101520001CF49C01241B350B121613060CF05BC037
:10153000922F842F8695869586958E9DD0018F9DBE
:10154000B00D11246A0F7B1FAF8DB8A1A60FB71F76
:10155000477049F188E0841B482F682F70E0FB0139
:10156000E255F94FE491281708F063C0621B710936
:101570002FEF30E002C0359527956A95E2F7E22318
:101580000130110539F0B0F10230110561F58C918F
:10159000E82702C08C91E82BEC93941720F12C8162
:1015A0003D81A20FB31FE92FE41BE83078F0023031
:1015B000110521F58E2F9C9190959C932C813D8156
:1015C000A20FB31F88508830B0F7E770EE2359F0B0
:1015D000F0E0EA55F94FE49101301105F9F010F10E
:1015E0000230110519F1DF91CF911F910F91FF90FA
:1015F000EF900895E0958C91E823CECF81E001151E
:10160000110509F480E081959E2F8C932C813D81FA
:10161000A20FB31F98509830C0F7D7CF8C91E82B0A
:10162000EC93E1CFE0958C91E823FACF8C91E827F9
:10163000F7CF0130110509F4ADCFE0F2023011050A
:1016400009F4A5CFAE0DBF1DAECF0F931F93CF935F
:10165000DF9377FF04C0260F371F70E060E0DC01E6
:101660001496CD91DC91FB01E20FF31FCE17DF073B
:101670001CF49E01261B370B121613064CF5FA01BB
:1016800057FD3796A3E0F595E795AA95E1F7EC9F0E
:10169000D001ED9FB00DFC9FB00D11246A0F7B1F90
:1016A000DC015F96ED91FC91E60FF71F477055271F
:1016B00081E090E001C0880F4A95EAF7482F013099
:1016C000110559F0A8F02E0F3F1F02301105E1F06F
:1016D000DF91CF911F910F9108952E0F3F1FE217B9
:1016E000F307B1F38191DF011197842B8C93F7CF2E
:1016F00080952E0F3F1FE217F30751F39191DF0101
:10170000119798239C93F7CFE217F30709F3819180
:10171000DF01119784278C93F7CF0F931F93FA0162
:10172000DC0156964C9156974230E9F04330A1F1D6
:10173000413061F514964D915C91DA01AE1BBF0BFF
:10174000FD01E21BF30B77FD0BC0DC0116964D91FA
:101750005C916417750724F4AB01BF010E94250B4F
:101760001F910F91089514964D915C91DA01A61B7B
:10177000B70BBD0161507109DC0116964D915C916A
:10178000DA01AE1BBF0BFD01E21BF30B77FDE8CFC7
:10179000AF010E94760AE4CF16964D915C91DA0172
:1017A000A61BB70BBD0161507109CDCF0F931F93DD
:1017B000FA01DC0156964C9156974230A9F043301D
:1017C00091F1413019F514964D915C91DA01AE1BFF
:1017D000BF0BFD013197F7FD04C0AB01BF010E94B3
:1017E000760A1F910F91089514964D915C91DA013C
:1017F000A61BB70BBD01DC0116964D915C91DA0179
:10180000AE1BBF0BFD013197621B730BF7FDE9CFD8
:10181000DC0116964D915C91E417F50714F7AF01C2
:101820000E94250BDECF16964D915C91DA01A61B26
:10183000B70BBD01621B730BCECFFC0177FD64C0FB
:1018400080859185681779070CF05EC057FD5CC0F4
:1018500082859385481759070CF056C086898230D7
:10186000B1F0833029F1813041F484819581841B6A
:10187000950BAB01BC01615071092130310509F1B3
:1018800008F443C02230310509F463C0089584810F
:101890009581DC01A61BB70BBD01615071098681E2
:1018A0009781DC01A41BB50BAD0141505109E5CF77
:1018B00086819781861B970BBA01AC014150510973
:1018C000DCCFCA0157FD0796A3E095958795AA95A9
:1018D000E1F7A481B5818A9F90018B9F300D9A9F7B
:1018E000300D1124620F731F078CF0A1E02DE60F5D
:1018F000F71F4770552721E030E001C0220F4A95BD
:10190000EAF78081822B80830895CA0157FD0796EC
:1019100033E0959587953A95E1F7A481B5818A9F43
:1019200090018B9F300D9A9F300D1124620F731F11
:10193000078CF0A1E02DE60FF71F4770552781E0D7
:1019400090E001C0880F4A95EAF78095908189233D
:10195000DACFCA0157FD079623E0959587952A951A
:10196000E1F7A481B5818A9F90018B9F300D9A9FEA
:10197000300D1124620F731F078CF0A1E02DE60FCC
:10198000F71F4770552721E030E001C0220F4A952C
:10199000EAF780818227B7CF08958EBD00000DB48D
:1019A00007FEFDCF8EB508958CBD9DBD08950895A9
:1019B000FC016370668B848195812681378161305B
:1019C00039F0633029F09187808733872287089523
:1019D000318720879387828708952F923F924F9275
:1019E0005F926F927F928F929F92AF92BF92CF92AF
:1019F000DF92EF92FF920F931F93CF93DF93CDB7B8
:101A0000DEB76A970FB6F894DEBF0FBECDBF9A8FD0
:101A1000898F7A8369834A01D22E18870F83370111
:101A2000BC2CDC0159962D913C915A97211531051A
:101A300009F015C118968D919C911997681779072F
:101A40000CF0D7C11A968D919C91481759070CF04C
:101A5000D0C14C2C512CB6E0CB9E600D711D1124D1
:101A60007C876B87161617060CF0C3C1EA2DF0E0D1
:101A7000FA87E98793E0EE0FFF1F9A95E1F7F88B5D
:101A8000EF87CF01840F951F181619060CF0B1C10E
:101A9000A98DBA8D58968C91811104C0BFEABD15ED
:101AA00008F4D394A98DBA8DED91FC91119702841D
:101AB000F385E02DCD010995B5E0DB9EC001112431
:101AC000E981FA81FC83EB83312C212C9C012A557E
:101AD0003E4F388F2F8B4A2D50E05E8B4D8BEF8918
:101AE000F88DE20DF31D44919E828D82D12CC12C84
:101AF00069817A81620D731D7A8B698B842F90E0E6
:101B00009C8B8B8BE98DFA8DA081B18140FF82C0C7
:101B1000F1E0BF126FC0AF126DC01C96ED91FC9149
:101B20002F813885A4014C0D5D1D69897A89898DC5
:101B30009A8D0995EB89FC89F595E7954E2F5FEF16
:101B4000C51AD50A6D817E818D899E89680F791F9E
:101B50007E836D8398E0C916D10481F6AFEF2A1A0F
:101B60003A0AEB81FC81E40DF51DFC83EB83F5E083
:101B70002F16310409F0B3CF2F813885261537058C
:101B8000B9F0A98DBA8DED91FC91B1E0BB1257C0AF
:101B9000AB1255C069817A816B5F7F4F0088F189F4
:101BA000E02D830128E030E0A401898D9A8D09950C
:101BB000A98DBA8DED91FC9111970688F789E02DDA
:101BC000CD016A960FB6F894DEBF0FBECDBFDF9190
:101BD000CF911F910F91FF90EF90DF90CF90BF902A
:101BE000AF909F908F907F906F905F904F903F90BD
:101BF0002F9009941E96ED91FC91EF80F884098551
:101C00001A8592014D815E816B817C81898D9A8DCF
:101C1000099590CF2F8138852615370509F48ACF8D
:101C200031E0B31207C0A31205C01C96ED91FC91E0
:101C3000930178CF1E96ED91FC917301E0CF6B85F7
:101C40007C85641975090684F785E02D73010F857D
:101C500018899201A401898D9A8D0995A9CFF9015E
:101C600034969491329745915491D91AB7E0DB9EFE
:101C7000400D511D1124F901259134913C8B2B8B82
:101C8000FA0125903490FA0132967490319634918D
:101C9000398B329664903196449041E04C1518F09F
:101CA0004A1508F07FC0662D062C000C770B7C834C
:101CB0006B83842D042C000C990B9E838D83A98D3E
:101CC000BA8DED91FC9111970284F385E02DCD0141
:101CD0000995512CD12CC12CEA2DF0E0FA87E98727
:101CE0002B2D30E03C872B87A401440D511D47FC70
:101CF0005A95588F4F8B69817A81660D711D67FCEB
:101D00007A957E876D877989C71608F051CF2C2D7B
:101D100030E04D815E81420F531FA985BA854A9FED
:101D2000C0014B9F900D5A9F900D1124FC01E80DAE
:101D3000F91DF88BEF87852D612C4F89588D420F47
:101D4000531F5E8B4D8B671408F050C0442443949E
:101D5000480E877041F4C1010196EB89FC89E20DC0
:101D6000F31DD4901C01D7FE19C0A98DBA8DED9139
:101D7000FC91662D70E0B1E0BB1219C0AB1217C028
:101D80002D853E85620F731F0484F585E02D2F811C
:101D900038854D895E89898D9A8D0995DD0C63940E
:101DA000842DD1CF1E821D821C821B8288CF4B8145
:101DB0005C81640F751FAB85BC856A9FC0016B9FFA
:101DC000900D7A9F900D112469817A81680F791F97
:101DD0000684F785E02DEF80F88409851A859D013A
:101DE0004F855889898D9A8D0995D8CF570CC39402
:101DF0008ACF6A960FB6F894DEBF0FBECDBFDF91D3
:101E0000CF911F910F91FF90EF90DF90CF90BF90F7
:101E1000AF909F908F907F906F905F904F903F908A
:101E20002F9008958F929F92AF92CF92EF92FF9250
:101E30000F931F93CF93DF93EC01262F898D9A8DFB
:101E4000009709F051C06A30D1F41D861C868D8937
:101E500048E0849F900111248E859F85820F931FF7
:101E60009F878E8781E090E0DF91CF911F910F9146
:101E7000FF90EF90CF90AF909F908F9008956D302E
:101E800089F3CC88AD888F898823C1F08C859D85A6
:101E900036E0C39E800D911D112448855985481751
:101EA000590764F44E855F851D861C8638E0A39E25
:101EB000C0011124840F951F9F878E87EA88FB88B5
:101EC000088919894E855F856C857D85CE010E94C4
:101ED000ED0C2C898C859D8546E0249F800D911DFD
:101EE00011249D878C87BECF6A3069F41D861C86BD
:101EF000FC013896E4912D898E859F85E29F800DA7
:101F0000911D1124ADCF6D3009F4ACCFFC01349696
:101F10003491631708F4A6CF3296E491E61708F4DB
:101F2000A1CFFC01329685909490462F431B342F0D
:101F300047E0349F800C911C1124F40132963491B7
:101F40003196E4913323A9F1EE2399F1CC88F40181
:101F50003596E491AD884F89442301F10E2E000C93
:101F6000FF0BE30FF11DCE9EA001CF9E500D11245B
:101F70006C857D85460F571F6885798564177507C1
:101F80006CF44E855F851D861C86FC013896E491B5
:101F9000AE9E400D511D11245F874E87EA88FB8855
:101FA000088919894E855F856C857D85CE010E94E3
:101FB000ED0CF4013496E4912C898C859D85E29F8B
:101FC000800D911D11248DCF6F927F928F929F92E1
:101FD000AF92BF92CF92DF92EF92FF920F931F9337
:101FE000CF93DF93EC016B015A0139014801E8817D
:101FF000F9810284F385E02D0995E881F981028851
:10200000F389E02D87019301A501B601CE01099561
:10201000A501480D591D41505109E881F9810288F7
:10202000F389E02D9301B601CE010995E881F9818C
:102030000088F189E02D9401A501B601CE01099532
:10204000C60CD71CB60161507109E881F98100887E
:10205000F189E02D9401A501CE010995E881F9816E
:102060000688F789E02DCE01DF91CF911F910F9166
:10207000FF90EF90DF90CF90BF90AF909F908F90A8
:102080007F906F9009946F927F928F929F92AF9200
:10209000BF92CF92DF92EF92FF920F931F93CF9355
:1020A000DF935C01EB016A01490138018701DC0122
:1020B000ED91FC916217730719F5641675062CF003
:1020C000962D872D3A01C92ED82E9601261937094B
:1020D0002F5F3F4F048CF58DE02DA301BE01C5019C
:1020E0000995DF91CF911F910F91FF90EF90DF90B5
:1020F000CF90BF90AF909F908F907F906F900895FA
:102100004615570591F42617370724F0892D4B0102
:10211000C22FD82F9E01281939092F5F3F4F068CF7
:10212000F78DE02DA601B401DACF0284F385E02D0E
:102130000995D501ED91FC910488F589E02D830185
:102140009401A601BE01C5010995D501ED91FC914F
:102150000688F789E02DC501DF91CF911F910F917E
:10216000FF90EF90DF90CF90BF90AF909F908F90B7
:102170007F906F900994EF92FF920F931F93DC0171
:102180001A960D911C911B9718962D913C911997B9
:10219000ED91FC9100A0F1A1E02D7B0150E040E029
:1021A00070E060E009951F910F91FF90EF90089506
:1021B0004F925F926F927F928F929F92AF92BF9257
:1021C000CF92DF92EF92FF920F931F93CF93DF9303
:1021D0006C012B015A0139014801DC01ED91FC91A0
:1021E0000284F385E02D0995E201640C751CD6018B
:1021F000ED91FC91C615D7055CF40088F189E02DBE
:1022000087019401A501BE01C60109952196EFCF72
:102210000688F789E02DC601DF91CF911F910F91BC
:10222000FF90EF90DF90CF90BF90AF909F908F90F6
:102230007F906F905F904F9009948F929F92AF9292
:10224000BF92CF92DF92EF92FF920F931F93CF93A3
:10225000DF93EC015B014A016901E881F9810284A5
:10226000F385E02D099595012C0D3D1D2150310977
:10227000E881F9810488F589E02D78018401A401C1
:10228000B501CE010995E881F9810688F789E02D2D
:10229000CE01DF91CF911F910F91FF90EF90DF90D2
:1022A000CF90BF90AF909F908F9009948F929F9204
:1022B000AF92BF92CF92DF92EF92FF920F931F9354
:1022C000CF93DF93EC015B014A0169017801E8815A
:1022D000F9810284F385E02D0995C80CD91C86018B
:1022E00001501109E881F9810488F589E02D9501F3
:1022F000A401B501CE010995E881F9810688F78925
:10230000E02DCE01DF91CF911F910F91FF90EF90C3
:10231000DF90CF90BF90AF909F908F900994EF92F5
:10232000FF920F931F93DC01ED91FC9100A0F1A1AE
:10233000E02D09951F910F91FF90EF9008950F9355
:102340001F93DC01ED91FC91068CF78DE02D099532
:102350001F910F9108950F931F93DC01ED91FC9154
:10236000048CF58DE02D09951F910F910895DC01E6
:10237000ED91FC910084F185E02D09943F924F92FC
:102380005F926F927F928F929F92AF92BF92CF9205
:10239000DF92EF92FF920F931F93CF93DF935C0135
:1023A0007B014A016901390187E0680E711C93E0E5
:1023B000759467949A95E1F72B01400E511E10E039
:1023C00000E0312CD0E0C0E0CE0187709927330CBB
:1023D000892B59F4FE0183E0F595E7958A95E1F79D
:1023E000E00FF11FE80DF91D349037FE0AC021E01F
:1023F00030E0A701B5016C0F7D1F88EF93E00E94CC
:10240000B7112196CC16DD06F9F68FEFE81AF80A17
:10241000060D171DE414F504A9F6DF91CF911F9165
:102420000F91FF90EF90DF90CF90BF90AF909F9073
:102430008F907F906F905F904F903F9008952F9274
:102440003F924F925F926F927F928F929F92AF9244
:10245000BF92CF92DF92EF92FF920F931F93CF9391
:10246000DF9300D000D000D0CDB7DEB73C016A01C9
:102470003E832D83FC82EB825801A41AB50AB7FE75
:1024800003C0B194A194B1088D809E80861A970AEA
:1024900097FE03C09194819491088A149B045CF088
:1024A000902F812F0D811E819D838E839C2D8D2DDC
:1024B0006B01692F782F0C151D055CF09D818E81B5
:1024C0007E836D83692F782F902F812F8601C92EEF
:1024D000D82E1601201A310A2B012D813E81421A75
:1024E000530A57FE03C0519441945108710137FEBD
:1024F00003C03FEFE31AF30AF594E7948D819E81C0
:10250000861797075CF5A1E0B0E0BA83A983C016EF
:10251000D1064CF1D301ED91FC910484F585E02DB9
:102520002B813C81A8016D817E818A149B041CF063
:102530004D815E81B801C3010995E418F508F7FEE5
:102540000AC02D813E8189819A81280F391F3E83DF
:102550002D83E20CF31C0F5F1F4FD9CF2FEF3FEFFE
:102560003A832983D4CF26960FB6F894DEBF0FBEE8
:10257000CDBFDF91CF911F910F91FF90EF90DF9032
:10258000CF90BF90AF909F908F907F906F905F9013
:102590004F903F902F900895089520917602260F36
:1025A0003327331F21323105ECF420919A02FC01CC
:1025B00090E080E0243069F082E00895A0917602F6
:1025C0002191AC014A5A5D4FA40FB52FB11D2C9338
:1025D0000196861798F380917602680F60937602D1
:1025E00080E0089581E0089510929A0281E080933E
:1025F0009C0210929B0261E082E00E94E40761E08D
:1026000083E00E94E407E9EBF0E080818E7F808325
:1026100080818D7F808380E28093B80085E4809301
:10262000BC000895CF93DF9391E0909355028823E7
:10263000B9F0C091B800D091BA008091BC008A7BFB
:102640008093BC0060E082E00E94E40760E083E0E9
:102650000E94E4070E94F412D093BA00C093B8001D
:10266000DF91CF910895E091C6028091C502E817ED
:1026700030F4F0E0E05DFD4F808190E008958FEF51
:102680009FEF08959091C6028091C5022FEF3FEF12
:10269000981748F4E92FF0E0E05DFD4F208130E02D
:1026A0009F5F9093C602C90108958091C5029091E1
:1026B000C602891B990B0895CF92DF92EF92FF9289
:1026C0000F931F93CF93DF937C01CB018A0120915D
:1026D000FC02222389F0EB016B01C40ED51ECC1540
:1026E000DD0569F06991D701ED91FC910190F081D0
:1026F000E02DC7010995F3CF642F0E94CD12C801C8
:10270000DF91CF911F910F91FF90EF90DF90CF90CD
:102710000895CF93DF931F92CDB7DEB769832091E1
:10272000FC022223F9F02091F902203258F021E036
:1027300030E0FC013383228390E080E00F90DF9152
:10274000CF9108958091FA02E82FF0E0E05FFD4F0D
:10275000998190838F5F8093FA028093F90281E0E0
:1027600090E0ECCF61E0CE0101960E94CD12F7CF50
:10277000CF92DF92EF92FF920F931F93CF93DF934D
:10278000D091F90281E0D13208F09CC0C091FB02E7
:102790000E944E086B017C0180919A0281116CC0ED
:1027A00082E080939A0281E080939C028FEF809375
:1027B00099021092BE02D093BD02A0E1B2E0EDE911
:1027C000F2E080E0D8138DC01092BF028091BF026A
:1027D000CC0FC82BC093BF0280919B02813009F0BF
:1027E00084C010929B020E944E086B017C01809174
:1027F000BF028093BB008091510290915202A09140
:102800005302B0915402892B8A2B8B2BA1F00E948A
:102810004E080091510210915202209153023091C2
:1028200054026C197D098E099F090617170728079E
:10283000390708F442C08091BC0083FDD8CF85ECF5
:102840008093BC000E944E086B017C0180919A022B
:10285000823009F44CC0809199028F3F09F469C01D
:1028600080919902803209F466C080919902803388
:1028700009F463C084E026C0809151029091520215
:10288000A0915302B0915402892B8A2B8B2B09F40F
:1028900083CF0E944E080091510210915202209164
:1028A0005302309154026C197D098E099F09061755
:1028B00017072807390708F06FCF809150020E9450
:1028C000121385E01092FA021092F9021092FC02A3
:1028D000DF91CF911F910F91FF90EF90DF90CF90FC
:1028E00008959D9191938F5F6DCF85EEA9CF8091D3
:1028F000510290915202A0915302B0915402892B3F
:102900008A2B8B2B09F4A2CF0E944E080091510212
:102910001091520220915302309154026C197D099A
:102920008E099F09061717072807390708F08ECF69
:10293000C4CF80E0C7CF82E0C5CF83E0C3CFEF92A2
:10294000FF920F931F93CF93DF937C01C62F80914B
:10295000150490911604009709F459C020911904A8
:1029600031E03093FC022093FB021092FA021092A5
:10297000F902DC01ED91FC910190F081E02D60E025
:1029800009958701EE24E394F12CD1E0C1508091A8
:10299000150490911604CF3F91F1B0E2EB16F104CB
:1029A000D8F00E94B81380911504909116042091DC
:1029B0001904D093FC022093FB021092FA021092A9
:1029C000F902DC01ED91FC910190F081E02D60E0D5
:1029D0000995EE24E394F12C80911504909116044E
:1029E000F8016491DC01ED91FC910190F081E02D02
:1029F0000995BFEFEB1AFB0A0F5F1F4FC7CFDF919F
:102A0000CF911F910F91FF90EF900C94B813E0912C
:102A10002504F0912604908180912B0480958923D0
:102A200080838701C15008F438C0F8018491209157
:102A3000130430911404232B29F00E94CD0C0F5F56
:102A40001F4FF0CF28E030E040E8E0912104F09102
:102A5000220490912904582F5423D9F05081952BAA
:102A60009083E0912304F0912404908150912A04F2
:102A7000952B9083E0912304F09124045081909150
:102A80002A04909595239083469521503109E9F6C3
:102A9000D6CF508190959523E3CFDF91CF911F91B1
:102AA0000F91FF90EF9008951F93CF93DF93EC0168
:102AB0008D8D9E8D009721F1162F29A131E0309345
:102AC000FC022093FB021092FA021092F902DC0140
:102AD000ED91FC910190F081E02D60E009958D8DE4
:102AE0009E8DDC01ED91FC910190F081E02D612F34
:102AF00009958D8D9E8DDF91CF911F910C94B81308
:102B0000ADA5BEA59C918BA9809589238C938B8DB7
:102B10009C8D892B31F0862FDF91CF911F910C94E2
:102B2000CD0C28E030E080E8A9A5BAA599A9462FE8
:102B30004823C1F04C91942B9C93ABA5BCA59C91D0
:102B40004AA9942B9C93ABA5BCA54C919AA99095AE
:102B500094239C9386952150310931F7DF91CF91D1
:102B60001F9108954C9190959423E6CFDF92EF92B8
:102B7000FF920F931F93CF93DF9380911504909151
:102B80001604892B09F498C020912D0430912E044D
:102B900040912F045091300460E072E18AE790E0A8
:102BA0000E94A227205131094109510956954795A4
:102BB000379527952093B80065E083E79CE00E9455
:102BC0009F146091FC03615088EF93E00E945415BC
:102BD0002091FE033091FF03C901079697FD0796E8
:102BE00033E0959587953A95E1F72091FC03309174
:102BF000FD03829F8001839F100D929F100D112471
:102C0000C0911704D0911804809115049091160476
:102C10000C0F1D1F009709F48FC02091190431E09B
:102C20003093FC022093FB021092FA021092F902F8
:102C3000DC01ED91FC910190F081E02D60E40995BB
:102C4000EE24E394F12CDD24D3948091150490912B
:102C500016040C171D0709F446C0B0E2EB16F10488
:102C6000D8F00E94B8138091150490911604209119
:102C70001904D092FC022093FB021092FA021092E7
:102C8000F902DC01ED91FC910190F081E02D60E40E
:102C90000995EE24E394F12C80911504909116048B
:102CA0006991DC01ED91FC910190F081E02D099595
:102CB000BFEFEB1AFB0AC9CF809113049091140463
:102CC000892B31F080913604909137040E94D40C06
:102CD000E0912704F0912804908180912C04809544
:102CE0008923808369CF0E94B81380911504909145
:102CF0001604892B09F461C020913104309132040B
:102D0000409133045091340460E072E18AE790E02E
:102D10000E94A22720513109410951095695479532
:102D2000379527952093B800DF91CF911F910F9190
:102D3000FF90EF90DF900895E0912504F091260434
:102D4000808190912B04892B80830C171D0769F2D9
:102D500089912091130430911404232B19F00E94BF
:102D6000CD0CF3CF28E030E040E8E0912104F09171
:102D7000220490912904582F5423D9F05081952B87
:102D80009083E0912304F0912404908150912A04CF
:102D9000952B9083E0912304F0912404508190912D
:102DA0002A04909595239083469521503109E9F6A0
:102DB000CCCF508190959523E3CFE0912704F091FB
:102DC0002804808190912C04892B8083ADCF1F93A0
:102DD000CF93DF93EC01162F8D8D9E8D892BB1F152
:102DE0002DA93EA94FA958AD60E072E18AE790E0B5
:102DF0000E94A22720513109410951095695479552
:102E0000379527952093B80066EA111167EACE013D
:102E10000E9454158D8D9E8D892B41F129AD3AADBF
:102E20004BAD5CAD60E072E18AE790E00E94A227C2
:102E300020513109410951095695479537952795F4
:102E40002093B800DF91CF911F9108958B8D9C8DB9
:102E5000892B21F08EAD9FAD0E94D40CEFA5F8A96F
:102E600090818CA9809589238083CECFEFA5F8A986
:102E700080819CA9892B8083E5CF90E080E0089534
:102E80002091FE033091FF03C901079697FD079635
:102E900023E0959587952A95E1F72091FC033091E1
:102EA000FD03829FA001839F500D929F500D11241E
:102EB00070E060E080911704909118040C94992AB6
:102EC000FB0101900020E9F73197AF01461B570B3A
:102ED000DC01ED91FC910280F381E02D0994CF9308
:102EE000DF93CDB7DEB7A1970FB6F894DEBF0FBE64
:102EF000CDBF19A2605D68A3BE01605E7F4F0E94D6
:102F00006017A1960FB6F894DEBF0FBECDBFDF915C
:102F1000CF910895FC0180819181009711F00C946C
:102F2000452908950E948B2A0F931F93CF93DF9317
:102F3000EC0188819981009759F02A813B812617FD
:102F4000370730F081E0DF91CF911F910F91089505
:102F50008B016F5F7F4F0E94CE29009759F09983B4
:102F600088831B830A832C813D81232B59F7FC0125
:102F70001082E8CF80E0E7CFEF92FF920F931F938C
:102F8000CF93DF936115710541F480E0DF91CF911C
:102F90001F910F91FF90EF90089541155105B1F0E9
:102FA0007B01EC010C811D81040F151FB8010E94EB
:102FB0009417882351F3288139818C819D81B70131
:102FC000820F931F0E94A02A1D830C8381E0DECF15
:102FD000FB0101900020E9F73197AF01461B570B29
:102FE0000C94BC17EF92FF920F931F93CF93DF9334
:102FF000CDB7DEB764970FB6F894DEBF0FBECDBF76
:103000007C01CB01BA018E010F5F1F4F22E044E02B
:103010000E94CC23FC0101900020E9F73197AF0119
:10302000481B590BBC01C7010E94BC1764960FB620
:10303000F894DEBF0FBECDBFDF91CF911F910F91EE
:10304000FF90EF90089585ED8093BC008091510230
:1030500090915202A0915302B09154020796A11D83
:10306000B11D23E0B695A795979587952A95D1F739
:103070002091BC0024FD03C010929A020895409153
:103080005102509152026091530270915402452BAB
:10309000462B472B69F30097A105B10541F02AE1C2
:1030A0002A95F1F700C00197A109B109E1CF8091FC
:1030B00050020C9412131F920F920FB60F9211240C
:1030C0008F939F938091E1009091E100937F909383
:1030D000E10083FF0FC01092E90091E09093EB00B4
:1030E0001092EC0092E39093ED001092F40298E0BD
:1030F0009093F00082FF1CC093E09093E9009091C0
:10310000F200992319F09AE39093E8009091E50278
:10311000992329F09091E50291509093E5029091C6
:10312000F302992329F09091F30291509093F302C6
:1031300084FF18C08091E2008E7E81608093E2005F
:103140008091E1008F7E8093E1008091E6028E7E87
:1031500080618093E6029F918F910F900FBE0F9038
:103160001F90189580FFF7CF8091E2008E7E8061DE
:103170008093E2008091E1008E7E8093E100809157
:10318000E6028E7E8160E5CF1F920F920FB60F92FE
:103190001124CF92DF92EF92FF920F931F932F9300
:1031A0003F934F935F936F937F938F939F93AF93CF
:1031B000BF93EF93FF93CF93DF93CDB7DEB76C97B9
:1031C000DEBFCDBF1092E9008091E80083FF2FC0E1
:1031D00089E0FE017596EE2EDF2E815029F0909148
:1031E000F10090833196F9CF84E68093F30282EF69
:1031F0008093E8008D8987FF39C09091E80090FFA7
:10320000FCCF982F907609F033C19E894F89588D55
:103210002F89F88C911131C0803861F58091E402DA
:103220008093F1001092F1008EEF8093E8006C968D
:103230000FB6F894DEBF0FBECDBFDF91CF91FF91E7
:10324000EF91BF91AF919F918F917F916F915F911E
:103250004F913F912F911F910F91FF90EF90DF9031
:10326000CF900F900FBE0F901F9018959EEF9093E8
:10327000E800C7CF1092F100D5CF913059F48111F9
:10328000D3CF4130510581F68091E4028D7F809348
:10329000E402CACF933049F48111C6CF41305105C1
:1032A00019F68091E4028260F2CF953041F480916A
:1032B000E80080FFFCCF20682093E300B5CF963074
:1032C00009F0A8C00B8D1C8D22E01092E90010922D
:1032D000E2021092E102F2122EC01092E00210926D
:1032E000DF020E9467071F8299E09983FA8291E0CA
:1032F0009E8390EA98879AEF99872091E102309116
:10330000E202275F3F4F3C832B838D831092E900BD
:103310001092E2021092E1021093E0020093DF02A9
:1033200049E050E0BE016F5F7F4F80E00E9441079F
:103330000E94670779CF1093E0020093DF020E949A
:10334000A406DC0112960D911C910115110509F4DA
:1033500057C1D801ED91FC910480F581E02D6E2DCF
:103360007D2DC8010995009709F045C1F801008538
:103370001185EBCFF3E0FF120EC08F89882309F48B
:1033800040C0823061F440E866E18CE59CE00E9438
:10339000C71C811149CF81E28093EB0048CF813077
:1033A00029F440E868E083E59CE0F1CF833099F7A9
:1033B0000E94A406DC011296ED90FC908E010F5F36
:1033C0001F4F6801E114F10479F0D701ED91FC91F0
:1033D0000680F781E02DB801C7010995080F111D7E
:1033E000F701E084F184EECFD8011C92F601019040
:1033F0000020E9F73197BF016C197D0940E0C60153
:10340000C6CF6DE37CE0FB01449150E080E80E9470
:1034100041070ACF973009F4BECF983021F481E0FC
:103420008093F10001CF993009F0FECE837009F04E
:10343000B2CFE3E1F1E081E031E096E32191222394
:1034400071F08093E9003093EB00DF0111972C912C
:103450002093EC009093ED008F5F873079F78EE733
:103460008093EA001092EA008F898093F402DCCE08
:103470008B8D9C8D1092E9001092E2021092E10275
:103480009093E0028093DF02898D81119AC08E892A
:103490009D89913A49F4813209F07DCF47E050E0AF
:1034A00064E071E080E0B3CF913209F074CF8332F1
:1034B00069F48F89988DB0E0A0E08093000190932B
:1034C0000101A0930201B0930301AECE8032A9F4B2
:1034D0008091E80082FFFCCF88E0E4E0F1E08150D9
:1034E00029F09091F10090833196F9CF84E6809392
:1034F000F3028BEF8093E80097CE823209F094CEEE
:103500008F8980930B01EEEFFFE7859194918B3FBC
:103510009C4D51F1E0E0F8E08091040190910501AB
:10352000A0910601B0910701803B9440A105B1052F
:10353000F1F480910B0180FD1AC0EE3F8AE0F8079C
:1035400089F587E797E79183808380916000809376
:10355000E30288E19BE00FB6F894A89580936000A1
:103560000FBE9093600060CEEEEFFAE0D5CF808181
:1035700091818737974709F057CEA89580916000D1
:103580008861809360008091E30280936000EE3F49
:103590002AE0F20789F08091FE0A9091FF0A918358
:1035A000808342CE808191818737980751F2909332
:1035B000FF0A8093FE0AC5CF1092FF0A1092FE0AFE
:1035C00033CE0E94A406DC0112960D911C910115C8
:1035D000110509F4E0CED801ED91FC910190F08144
:1035E000E02D6E2D7D2DC801099581111DCEF801AC
:1035F00000851185ECCF181619060CF415CECBCE2C
:10360000F1E0FF12B7CE61E47CE0FDCE1F920F9295
:103610000FB60F9211242F933F938F939F93AF93E5
:10362000BF938091F5029091F602A091F702B091BC
:10363000F8023091DA0226E0230F2D3758F5029672
:10364000A11DB11D2093DA028093F5029093F6023A
:10365000A093F702B093F8028091DB029091DC0214
:10366000A091DD02B091DE020196A11DB11D8093F3
:10367000DB029093DC02A093DD02B093DE02BF91E7
:10368000AF919F918F913F912F910F900FBE0F900F
:103690001F90189529E8230F0396A11DB11DD2CFC5
:1036A0001F920F920FB60F9211242F933F934F93B7
:1036B0005F936F937F938F939F93AF93BF93EF939A
:1036C000FF938DE493E00E94E909FF91EF91BF9190
:1036D000AF919F918F917F916F915F914F913F91AA
:1036E0002F910F900FBE0F901F9018951F920F9261
:1036F0000FB60F9211242F938F939F93EF93FF9305
:10370000E0915D03F0915E038081E0916303F091AD
:10371000640382FD1BC09081809166038F5F8F736D
:1037200020916703821741F0E0916603F0E0E35BCC
:10373000FC4F958F80936603FF91EF919F918F913E
:103740002F910F900FBE0F901F9018958081F4CF8E
:103750001F920F920FB60F9211242F933F934F9306
:103760005F936F937F938F939F93AF93BF93EF93E9
:10377000FF938091B900887F803609F44AC0F0F544
:10378000883209F4A7C018F5803109F49BC0B8F459
:10379000882309F4F9C0883009F494C0FF91EF91AF
:1037A000BF91AF919F918F917F916F915F914F9159
:1037B0003F912F910F900FBE0F901F901895883159
:1037C00009F488C0803251F78093990214C0803484
:1037D00009F49DC040F48033B9F38833F9F680933F
:1037E000990285ECB0C0803509F485C0883509F4AC
:1037F00096C0883499F60E942318D0CF883909F4EE
:103800008CC038F5883729F050F4883611F08037AD
:1038100029F683E080939A021092980257C0883864
:1038200009F47BC0803919F0803809F0B7CF809156
:103830009802803208F071C0E091980281E08E0F0A
:10384000809398028091BB00F0E0E858FD4F8083A0
:103850003DC0803B39F0E0F4803A09F479C0883A01
:1038600009F09CCF84E080939A0210927702109224
:103870007602E091C302F091C4020995809176022C
:1038800081110FC081E0809376021092560209C028
:10389000803C09F4A6CF883C09F4A3CF883B09F00B
:1038A0007DCFE091770281E08E0F80937702F0E088
:1038B000EA5AFD4F80818093BB00909177028091FE
:1038C000760229C08091BF028093BB0085EC809373
:1038D000BC0064CF9091BE028091BD02981758F54C
:1038E000E091BE0281E08E0F8093BE02F0E0E356CD
:1038F000FD4F8081E9CFE091BE0281E08E0F809381
:10390000BE028091BB00F0E0E356FD4F80839091B2
:10391000BE028091BD029817C8F285E8D8CFE09129
:10392000BE0281E08E0F8093BE028091BB00F0E06A
:10393000E356FD4F808380919C0281115CCF81E032
:1039400080939B0284EA8093BC0010929A0226CF57
:1039500085EC8093BC0010929A028091980280328C
:1039600030F4E0919802F0E0E858FD4F1082609149
:10397000980270E0E091C102F091C20288E792E003
:103980000995109298020ACF1092990234CFEF92C3
:10399000FF920F931F93CF93DF93F82E192FE62EEC
:1039A000042F81E0860F880F0E94130783E00E9496
:1039B0001307CF2DD12FEC0EFD2EF11CCE15DF05F8
:1039C000B9F007FF13C0FE0184910E941307182F5E
:1039D00080E00E941307812321968111EFCFDF91B0
:1039E000CF911F910F91FF90EF9008958881EDCFB7
:1039F00081E0F5CFCF93DF93EDEFF2E013821282F7
:103A000048EE53E060E070E044835583668377833B
:103A10008DE191E0918380832FEF3FEF35872487FD
:103A2000ADE4B3E013961C921E92129714964D9338
:103A30005D936D937C9317978FE291E011969C9321
:103A40008E938DEC90E01D969C938E931C978CEC3E
:103A500090E01F969C938E931E9788EC90E0519671
:103A60009C938E93509789EC90E053969C938E9301
:103A700052978AEC90E055969C938E9354978EECD7
:103A800090E057969C938E93569759961C9259970F
:103A90005A961C925A975B961C925B975C961C9266
:103AA0005C97CCEED3E01B821A824C835D836E83DD
:103AB0007F8381E491E099838883E8EFF3E01382C8
:103AC000128240E850E05583448380E490E097837D
:103AD00086835187408793878287168A1586148646
:103AE0001786168681E0858B848B338B228B318BF6
:103AF000208B878B108E128E118E23E531E031835F
:103B00002083148E138ED68FC58F10A2178E9FEF31
:103B100094A395A396A397A394E090A740E85AE1B5
:103B200066E070E045AB56AB67AB70AF40EA56E875
:103B300061E070E041AF52AF63AF74AF90E596AF14
:103B400087AFB093EB03A093EA03DF91CF91089581
:103B5000CF93DF93CDB7DEB72E970FB6F894DEBFC5
:103B60000FBECDBF789484B5826084BD84B581607A
:103B700084BD85B5826085BD85B5816085BD809138
:103B80006E00816080936E001092810080918100B0
:103B900082608093810080918100816080938100A8
:103BA000809180008160809380008091910082608C
:103BB0008093910080919100816080939100809129
:103BC00090008160809390008091C1008460809318
:103BD000C1008091C10082608093C1008091C100CA
:103BE00081608093C1008091C30081608093C30095
:103BF0008091C00082608093C0008091C20081608B
:103C00008093C20080917A00846080937A008091D2
:103C10007A00826080937A0080917A008E7F809310
:103C20007A0080917A00806880937A001092F40282
:103C30001092E4021092E6028091D7008160809396
:103C4000D70080EA8093D80089B58F7E89BD89B579
:103C5000826089BD09B400FEFDCF61E070E080E0C4
:103C600090E00E9473088091D8008F7C80618093DF
:103C7000D8008091E000807F8093E0008091E10097
:103C80008E7E8093E1008DE08093E20061E00E94EF
:103C9000120861E08AE00E94120860E08BE00E9456
:103CA000120862E087E10E94120862E08EE00E9442
:103CB000120862E08FE00E94120862E080E10E9438
:103CC000120862E086E10E94120861E08AE00E9428
:103CD000E40768EC70E080E090E00E947308809157
:103CE000170490911804892B11F10E94401720911C
:103CF000FE033091FF038091FC039091FD0321327C
:103D000031050CF01AC1B9016052710977FF02C088
:103D10006F5F7F4F759567958357910997FD019662
:103D200000E210E023E730E048EC56E019C12091B2
:103D3000FE033091FF03C901079697FD0796B3E094
:103D400095958795BA95E1F72091FC033091FD0395
:103D5000AC01429FC001439F900D529F900D1124D2
:103D60000E94A9289093180480931704892B09F0C6
:103D7000BCCF0E94B6150E94401781E080930C04CE
:103D800080930D0421E030E030930B0420930A046B
:103D9000309309042093080410920504109204043F
:103DA0001092070410920604809310046BE771E0F0
:103DB00088EF93E00E9460170E94B61560ED77E0EF
:103DC00080E090E00E947308E0915D03F0915E0353
:103DD00082E08083E0915903F0915A031082E091D0
:103DE0005B03F0915C0380E1808310926503E091B6
:103DF0006103F091620386E08083E0915F03F091BC
:103E00006003808180618083E0915F03F0916003B3
:103E1000808188608083E0915F03F09160038081FE
:103E200080688083E0915F03F091600380818F7DE3
:103E3000808384E090E0A0E0B0E080935103909311
:103E40005203A0935303B09354030091EA031091DB
:103E5000EB0365EA71E0C8010E94601770E060E062
:103E6000C8010E946F176CEA71E0C8010E946017D8
:103E700068E070E0C8010E946F17D801ED91FC91D5
:103E80000190F081E02D6AE0C80109958E010F5F75
:103E90001F4F2FE7822E2BE0922E30E0A32E30E032
:103EA000B32E8FB7F8944091F5025091F6026091CD
:103EB000F7027091F8028FBF8091D6029091D702DD
:103EC000A091D802B091D9028C599F4FAF4FBF4FEC
:103ED00084179507A607B70708F026C44093D602B3
:103EE0005093D7026093D8027093D9021A82198234
:103EF0001C821B821E821D8270E060E0C8010E944D
:103F0000941729813A8181110EC22115310519F0CA
:103F1000C9010E9445291A8219821E821D821C82B3
:103F20001B828DE493E00E94C909892B09F403C226
:103F30008DE493E00E946709F4CFB90160547109E0
:103F400077FF02C06F5F7F4F759567958255910926
:103F500097FD019600E410E022E530E048EA58E0E1
:103F6000959587950E94BE1182E080931A048091F6
:103F7000150490911604892B09F4DFC08CE380931B
:103F800019041092C6021092C5021092FA02109201
:103F9000F9020E94F41289E299E09093C40280939E
:103FA000C3028AE299E09093C2028093C102809199
:103FB000200487FD1EC061E00E94120861E080912C
:103FC00020040E94E40761E070E080E090E00E943D
:103FD000730860E0809120040E94E4076AE070E0CA
:103FE00080E090E00E94730861E0809120040E94CC
:103FF000E4078091150490911604892B09F45CC1A3
:1040000020912D0430912E0440912F0450913004C2
:1040100060E072E18AE790E00E94A2272051310916
:104020004109510956954795379527952093B80032
:1040300064E084EC96E00E949F146091FE0361505E
:1040400088EF93E00E94541564E080EC96E00E94B3
:104050009F1480911A0460E1813009F064E188EFD7
:1040600093E00E94541564E08CEB96E00E949F144C
:104070008FE8809335048091FC039091FD03803894
:10408000910509F032C18091FE039091FF038034C5
:10409000910509F03AC180911A04813009F023C1D9
:1040A0008FE98093350412E16AED88EF93E00E9476
:1040B0005415612F88EF93E00E94541561E888EF52
:1040C00093E00E9454156091350488EF93E00E94BC
:1040D000541569ED88EF93E00E94541580911A04FD
:1040E00062E2813009F061EF88EF93E00E9454159D
:1040F00066E086EB96E00E949F14809115049091F3
:104100001604892B09F405C1209131043091320441
:10411000409133045091340460E072E18AE790E00A
:104120000E94A2272051310941095109569547950E
:10413000379527952093B8001CCE61E080911E042E
:104140000E94120861E080911F040E941208809171
:104150001E04082E000C990BFC01E256F44FE4916A
:10416000F0E0EE0FFF1FE057F44F259134913093AC
:10417000260420932504FC01E354F44FE491E093DA
:104180002B0480911F04082E000C990BFC01E256B1
:10419000F44FE491F0E0EE0FFF1FE057F44FA591CC
:1041A000B491B0932804A0932704FC01E354F44F86
:1041B000E491E0932C048C91E82BEC938091130410
:1041C00090911404892B09F434C01FB7F89480919E
:1041D000C002811127C0EFEAFBE08491EEECFBE026
:1041E0009491E82FF0E0EE0FFF1FEE57F44FA591EA
:1041F000B491EC91E92321F461E081E10E94E407AC
:1042000061E081E10E9412088CB580618CBD8CB5A3
:1042100080648CBD61E08FE00E94120861E080E163
:104220000E9412088091C0028F5F8093C0021FBF5E
:10423000BECE61E080911C040E94120861E0809172
:104240001D040E94120880911C04082E000C990B7A
:10425000FC01E256F44FE491F0E0EE0FFF1FE0574F
:10426000F44F259134913093220420932104FC01D2
:10427000E354F44FE491E093290480911D04082E47
:10428000000C990BFC01E256F44FE491F0E0EE0FC4
:10429000FF1FE057F44FA591B491B0932404A0936D
:1042A0002304FC01E354F44FE491E0932A048C913D
:1042B000E095E823EC937BCE809113049091140455
:1042C000892B31F080913604909137040E94D40CF0
:1042D000E0912704F0912804908180912C0480952E
:1042E00089238083A5CE8FECDCCE8036910569F4DE
:1042F0008091FE039091FF03409739F480911A0456
:10430000813029F480E18093350412E0CDCE8FEA2C
:10431000FACFE0912704F0912804808190912C0439
:10432000892B808326CD1E821D826DEC71E0C90130
:104330000E94A02AF6CD6EEB71E08DE493E00E941E
:1043400060178DE493E00E94560A0E948909FC01DF
:1043500097FD86C18D32910509F04CC0212C312C7E
:1043600090E8492E9FE3592EC12CD12C7601712C57
:10437000612CE130F10559F1ED32F10509F447C046
:10438000EE32F10509F446C0CF01C0970A97F8F460
:10439000AAE0B0E0A70196010E9451276F01FF0F2C
:1043A000EE08FF08C60ED71EE81EF91EB0E3CB1AB2
:1043B000D108E108F108772051F02DEC3CEC4CECF1
:1043C0005DE3C201B1010E9493261B012C018DE423
:1043D00093E00E9467090E948909FC01C0970A972F
:1043E00040F2EE32F105C9F4772019F2762C611013
:1043F0001AC027C0C0970A9708F4B0CFEE32F10573
:1044000009F4ACCF8DE493E00E9467099ECF662447
:104410006394DDCF77247394DACFE130F10509F4AA
:10442000A8CF662041F0F094E094D094C094C11CD1
:10443000D11CE11CF11CC701B6010E94582677204F
:1044400041F0C701B6010E945826A20191010E94C5
:1044500093266093CB027093CC028093CD0290930D
:10446000CE02C8010E948A17E7EEFBE08491E8ECD7
:10447000FBE0F490E9EAFBE0E490EE2009F4F4C0FC
:1044800081110E949807EE2DF0E0EE0FFF1FE85912
:10449000F44FA591B4918C91F82209F4E5C0809174
:1044A000C7029091C802A091C902B091CA020196B8
:1044B000A11DB11D8093C7029093C802A093C902A9
:1044C000B093CA028091C7029091C802A091C9021C
:1044D000B091CA024F97A105B10520F060E08AE0D3
:1044E0000E94E4071A8619861C861B861E861D8676
:1044F00070E060E0CE0109960E94941729853A8504
:104500008111BBC02115310519F0C9010E9445294F
:104510001A8619861E861D861C861B866EEC71E027
:10452000CE0109960E94E8174AE0B8018091D302B3
:104530009091D4020E94EA23F80101900020E9F74B
:104540003197AF01401B510BB801CE0109960E9473
:10455000BC1768ED71E0CE0109960E94E817409102
:10456000CF025091D0026091D1027091D202CE015F
:1045700009960E94F21763EE71E0CE0109960E943F
:10458000E8174091CB025091CC026091CD0270911E
:10459000CE02CE0109960E94F2170E944017109297
:1045A0000504109204041092070410920604698511
:1045B0007A856115710521F088EF93E00E946017FC
:1045C0000E94B615CE0109960E948A17F4018491C3
:1045D00020917B00982F990F990F90722F7D922B2D
:1045E00090937B008770806480937C0080917A0038
:1045F000806480937A0080917A0086FDFCCF809160
:104600007800E0907900FE2CE82EF092D402E0923F
:10461000D302B7010F2C000C880B990B0E9458266F
:10462000FFE5EF16F1E0FF0684F120E030E04FEA0D
:1046300053E40E94CA2720E030E040E450E40E94A6
:10464000932620E030E447E154E40E943728609349
:10465000CF027093D0028093D1029093D20223C0F4
:1046600060E070E0CB01F5CE1092C7021092C80254
:104670001092C9021092CA0225CF1E861D866DECCB
:1046800071E0C9010E94A02A49CF2AE4E21621E084
:10469000F2060CF455C01092CF021092D002109284
:1046A000D1021092D2021A8219821C821B821E82AF
:1046B0001D8262E270E0C8010E94941729813A814C
:1046C000811151C02115310519F0C9010E944529F8
:1046D0001A8219821E821D821C821B824091CF0287
:1046E0005091D0026091D1027091D202C8010E9413
:1046F000F2176CEC71E0C8010E94E81769817A81B9
:104700006115710521F08DE493E00E946017C801E6
:104710000E948A17F090D5026F2D8DE00E94E40769
:1047200041E0F426F092D502A114B10409F4B9CB0A
:104730000E94D509882309F4B4CB0E940000B1CBB4
:1047400020E030E045EA53E40E94372820E030E0E2
:1047500040E85FE30E94CA2720E030E040E450E4F4
:104760000E94932674CF82E290E09E838D836CEE4C
:1047700071E0C9010E94A02AB1CF83E591E0909336
:10478000F9038093F803809117049091180400971F
:1047900011F00C9445290895EF920F931F93CF9336
:1047A000DF93E80134E047FD34E1042E000C550BA3
:1047B00057FF03C0519541955109E32E022F242F35
:1047C000AE010E940F24CE01DF91CF911F910F9176
:1047D000EF900895BB274A3031F4992322F4BDE2CB
:1047E000909581959F4F0C94F623BB27FB0155278D
:1047F000AA27880F991FAA1FA41710F0A41B83953E
:104800005051B9F7A05DAA3308F0A95DA1930097B4
:1048100079F7B111B1931192CB010C944626A9E01E
:10482000B0E0E5E1F4E20C9462276A01F22EB02ECA
:10483000102FFBE3AF2EA01608F41BE31F5F012F20
:1048400027E0AE014F5F5F4F0E946E25BC0189815A
:10485000982F9970913009F43FC09BE2E1FC04C0AD
:104860009E2D9170E0FC3AC05E2D5071E82FE870EB
:1048700083FF46C084E0911101C083E0EF2DE81B67
:104880008F1508F0E0E0D6018E2F20E2552351F17C
:10489000992329F0D6019C93C60101966C019601DB
:1048A0002D5F3F4FE2FE24C08EE4D6018C9391E44D
:1048B00011969C93119712968C93D9018E2F90E2AA
:1048C00081111BC0E20FF32FF11D10828EEF9FEFBD
:1048D0002996ECE00C947E279DE2C6CF90E2C4CFEF
:1048E0002D9381508111FCCFCE0ED11CE0E0D0CFB2
:1048F0008EE6D6018C9391E6DBCF9D938150E0CF7D
:10490000482F447082FF3DC084E0911101C083E0D4
:104910008F1510F4EF2DE81BD6018E2F20E25523C2
:1049200009F1992329F0D6019C93C60101966C01E7
:1049300096012D5F3F4FE2FE1BC089E4D6018C93A8
:104940008EE411968C93119786E412968C93D9017C
:104950008E2F90E2882309F4B5CF9D938150FACF32
:104960002D9381508111FCCFCE0ED11CE0E0D9CF28
:1049700089E6D6018C938EE611968C93119786E684
:10498000E4CF9B0177FF02C030E020E0A1E0B0E07F
:10499000911102C0B0E0A0E0F9013196AE0FBF1F47
:1049A0008B2C912CBB2009F461C05401EFEFAE1A9F
:1049B000BE0AAA0DBB1DFA161B0619F014F04F2DE6
:1049C0004A1B511188C0E3FC59C07601A42FB0E204
:1049D000A1114FC0C40ED11C992309F45BC040E063
:1049E000D6011196F60190836D01552309F448C054
:1049F000012F060F9A81582F507184FF03C0913305
:104A000009F4015010160CF047C0093008F008E016
:104A1000EEE2FE2E5B01A01AB1088501919481940B
:104A200091082F3F320729F4D601FC92F601319606
:104A30006F016217730794F1021713077CF5DB010E
:104A4000A21BB30BAA24A394B12CAC0EBD1EAA0DBD
:104A5000BB1D11968C9121503109D6011196281554
:104A60003905F4F0F60180836D01DBCFB12CA12C68
:104A7000A0CFF701B1937F01A150AACF9111B0CF80
:104A8000D601942F50E302C05D9391509111FCCF59
:104A9000C40ED11C40E0ACCF01E0BACF80E3DBCF45
:104AA0006217730731F4963388F4953311F4552364
:104AB00069F0F6018083FD01842F90E2811108C026
:104AC000A40FB11D1C9290E080E002CF81E3F1CFF2
:104AD00091938150F3CF911183CF8ACF283008F082
:104AE00027E03327DA01990F311D87FD9160009689
:104AF0006105710539F432602E5F3D9330E32A95EC
:104B0000E1F708959F3F30F080387105610509F0A5
:104B10003C5F3C5F3D93913008F08068911DDF93CE
:104B2000CF931F930F93FF92EF92192F987F969533
:104B3000E92F96959695E90FFF27EA5FFE4F992793
:104B40003327EE24FF24A701E7010590089407947A
:104B500028F4360FE71EF81E491F511D660F771FF8
:104B6000881F991F0694A1F70590079428F4E70E73
:104B7000F81E491F561FC11D770F881F991F661FFA
:104B80000694A1F70590079428F4F80E491F561FC4
:104B9000C71FD11D880F991F661F771F0694A1F7A5
:104BA0000590079420F4490F561FC71FD81F990F6F
:104BB000661F771F881F0694A9F7849110951770B8
:104BC00041F0D695C79557954795F794E7941A9570
:104BD000C1F7ECEAF0E06894159015913591659174
:104BE000959105907FE27395E118F10A430B560BFE
:104BF000C90BD009C0F7E10CF11E431F561FC91F96
:104C0000D01D7EF4703311F48A95E6CFE8940150FC
:104C100030F0080F0AF40027021708F4202F23951C
:104C2000022F7A3328F079E37D932A95E9F710C0B3
:104C30007D932A9589F606949795679537951795EC
:104C40001794E118F10A430B560BC90BD00998F0E1
:104C500023957E9173957A3308F070E37C9320134B
:104C6000B8F77E9170617D9330F0839571E37D9309
:104C700070E32A95E1F71124EF90FF900F911F91B7
:104C8000CF91DF91992787FD90950895DC01FC0174
:104C9000672F71917723E1F7329704C07C916D9370
:104CA00070836291AE17BF07C8F30895E89409C0F6
:104CB00097FB3EF490958095709561957F4F8F4F4F
:104CC0009F4F9923A9F0F92F96E9BB279395F69565
:104CD000879577956795B795F111F8CFFAF4BB0FE3
:104CE00011F460FF1BC06F5F7F4F8F4F9F4F16C047
:104CF000882311F096E911C0772321F09EE8872FD1
:104D0000762F05C0662371F096E8862F70E060E08C
:104D10002AF09A95660F771F881FDAF7880F969505
:104D2000879597F908950E94A6260C9417270E944C
:104D3000092738F00E94102720F0952311F00C94D9
:104D400000270C94062711240C944B270E94282737
:104D500070F3959FC1F3950F50E0551F629FF001CE
:104D6000729FBB27F00DB11D639FAA27F00DB11DE7
:104D7000AA1F649F6627B00DA11D661F829F222770
:104D8000B00DA11D621F739FB00DA11D621F839FF7
:104D9000A00D611D221F749F3327A00D611D231FCD
:104DA000849F600D211D822F762F6A2F11249F571B
:104DB00050409AF0F1F088234AF0EE0FFF1FBB1F1E
:104DC000661F771F881F91505040A9F79E3F5105DD
:104DD00080F00C9400270C944B275F3FE4F3983E3F
:104DE000D4F3869577956795B795F795E7959F5F87
:104DF000C1F7FE2B880F911D9695879597F9089519
:104E000097F99F6780E870E060E008959FEF80EC7D
:104E1000089500240A941616170618060906089520
:104E200000240A9412161306140605060895092E86
:104E30000394000C11F4882352F0BB0F40F4BF2BF5
:104E400011F460FF04C06F5F7F4F8F4F9F4F089535
:104E500057FD9058440F551F59F05F3F71F047952B
:104E6000880F97FB991F61F09F3F79F08795089510
:104E7000121613061406551FF2CF4695F1DF08C02F
:104E8000161617061806991FF1CF8695710561054C
:104E900008940895E894BB2766277727CB0197F9F4
:104EA00008950E949327A59F900DB49F900DA49FF5
:104EB000800D911D112408952F923F924F925F9281
:104EC0006F927F928F929F92AF92BF92CF92DF921A
:104ED000EF92FF920F931F93CF93DF93CDB7DEB77F
:104EE000CA1BDB0B0FB6F894DEBF0FBECDBF099413
:104EF0002A88398848885F846E847D848C849B846A
:104F0000AA84B984C884DF80EE80FD800C811B8177
:104F1000AA81B981CE0FD11D0FB6F894DEBF0FBEA6
:104F2000CDBFED010895A29FB001B39FC001A39F23
:104F3000700D811D1124911DB29F700D811D1124D2
:104F4000911D0895A1E21A2EAA1BBB1BFD010DC0E5
:104F5000AA1FBB1FEE1FFF1FA217B307E407F50729
:104F600020F0A21BB30BE40BF50B661F771F881F05
:104F7000991F1A9469F760957095809590959B019B
:104F8000AC01BD01CF010895EE0FFF1F0590F49114
:104F9000E02D09945058BB27AA270E94E2270C94C1
:104FA00017270E94092738F00E94102720F039F4B3
:104FB0009F3F19F426F40C9406270EF4E095E7FBC6
:104FC0000C940027E92F0E94282758F3BA1762078C
:104FD00073078407950720F079F4A6F50C944A2707
:104FE0000EF4E0950B2EBA2FA02D0B01B901900104
:104FF0000C01CA01A0011124FF27591B99F0593F48
:1050000050F4503E68F11A16F040A22F232F342F8F
:105010004427585FF3CF469537952795A795F040DD
:105020005395C9F77EF41F16BA0B620B730B840BF2
:10503000BAF09150A1F0FF0FBB1F661F771F881FAA
:10504000C2F70EC0BA0F621F731F841F48F4879502
:1050500077956795B795F7959E3F08F0B0CF9395F4
:10506000880F08F09927EE0F9795879508950E946D
:105070004B280C9417270E94102758F00E940927EC
:1050800040F029F45F3F29F00C94002751110C9453
:105090004B270C9406270E94282768F39923B1F325
:1050A000552391F3951B550BBB27AA27621773074E
:1050B000840738F09F5F5F4F220F331F441FAA1FE2
:1050C000A9F335D00E2E3AF0E0E832D0915050409E
:1050D000E695001CCAF72BD0FE2F29D0660F771F4C
:1050E000881FBB1F261737074807AB07B0E809F032
:1050F000BB0B802DBF01FF2793585F4F3AF09E3FB7
:10510000510578F00C9400270C944B275F3FE4F393
:10511000983ED4F3869577956795B795F7959F5FF9
:10512000C9F7880F911D9695879597F90895E1E045
:10513000660F771F881FBB1F621773078407BA07A4
:1051400020F0621B730B840BBA0BEE1F88F7E095FF
:1051500008950F931F93CF93DF938230910510F43E
:1051600082E090E0E0913A04F0913B0430E020E0EE
:10517000B0E0A0E0309799F42115310509F44AC058
:10518000281B390B24303105D8F58A819B816115A4
:10519000710589F1FB0193838283FE0111C0408177
:1051A00051810281138148175907E0F048175907C8
:1051B00099F4109761F012960C93129713961C9322
:1051C0003296CF01DF91CF911F910F9108950093F7
:1051D0003A0410933B04F4CF2115310551F04217E6
:1051E000530738F0A901DB019A01BD01DF01F80185
:1051F000C1CFEF01F9CF90933B0480933A04CDCF18
:10520000FE01E20FF31F81939193225031093983FC
:105210002883D7CF2091380430913904232B41F4CF
:1052200020910E0130910F013093390420933804FE
:1052300020910C0130910D012115310541F42DB75C
:105240003EB74091100150911101241B350BE091A4
:105250003804F0913904E217F307A0F42E1B3F0B3A
:105260002817390778F0AC014E5F5F4F24173507D8
:1052700048F04E0F5F1F50933904409338048193D8
:1052800091939FCFF0E0E0E09CCFCF93DF93009726
:10529000E9F0FC01329713821282A0913A04B09196
:1052A0003B04ED0130E020E01097A1F42081318132
:1052B000820F931F20913804309139042817390741
:1052C00009F061C0F0933904E0933804DF91CF9185
:1052D0000895EA01CE17DF07E8F54A815B819E0158
:1052E00041155105B1F7E901FB83EA8349915991D1
:1052F000C40FD51FEC17FD0761F4808191810296E0
:10530000840F951FE90199838883828193819B8310
:105310008A83F0E0E0E012968D919C9113970097BC
:10532000B9F52D913C911197CD010296820F931FF3
:1053300020913804309139042817390739F630970D
:1053400051F510923B0410923A04B0933904A093A3
:105350003804BCCFD383C28340815181840F951F11
:10536000C817D90761F44E5F5F4F88819981480F54
:10537000591F518340838A819B81938382832115A6
:10538000310509F0B0CFF0933B04E0933A049ECF8F
:10539000FD01DC01C0CF13821282D7CFB0E0A0E0C4
:1053A000E4EDF9E20C945E278C01009751F4CB01F7
:1053B0000E94A9288C01C801CDB7DEB7E0E10C94AA
:1053C0007A27FC01E60FF71F9C0122503109E217F2
:1053D000F30708F49DC0D901CD91DC911197C61750
:1053E000D70798F0C530D10530F3CE010497861762
:1053F000970708F3C61BD70B2297C193D1936D93E0
:105400007C93CF010E944529D6CF5B01AC1ABD0A1F
:105410004C018C0E9D1EA0913A04B0913B04512C7E
:10542000412CF12CE12C109731F5809138049091AA
:1054300039048815990509F05CC04616570608F02E
:1054400058C080910C0190910D01009741F48DB7E7
:105450009EB74091100150911101841B950BE817E4
:10546000F90708F055C0F0933904E0933804F901C6
:1054700071836083A0CF8D919C91119712966C904F
:10548000129713967C901397A815B90559F56C01DE
:1054900042E0C40ED11CCA14DB0420F1AC014A194D
:1054A0005B09DA011296159780F06282738251834C
:1054B0004083D9016D937C93E114F10471F0D7011D
:1054C0001396FC93EE93129776CF22968C0F9D1F26
:1054D000F90191838083F301EFCFF0933B04E093D4
:1054E0003A0469CF4816590608F42C017D01D3010E
:1054F0009ACFCB010E94A9287C01009749F0AE0108
:10550000B8010E94902AC8010E944529870153CF03
:1055100010E000E050CF81E090E0F8940C94A72ACE
:10552000FB01DC0102C001900D9241505040D8F7C0
:105530000895DC0101C06D9341505040E0F708959B
:10554000FB01DC0101900D920020E1F7089516E0C7
:10555000CDE3D6E004C0FE010E94C4272196CE33DD
:08556000D107C9F7F894FFCF51
:10556800FFFFFFFF00E100000000000000003C0416
:10557800800000C1808100000000000000B806A57E
:1055880008D906CE06F906DD06E906000000000A7D
:105598000A2B095809560AC90967097B090000003E
:1055A8000089135C133D1768065513421333130023
:1055B800000000120F2B093D17CC121D0C6806B70E
:1055C800118F11AB119F111F126806D80CE7168DA9
:1055D8000BD60BD810BB104310E40F486967680A54
:1055E800696D2074686520526F6C6C657220436821
:1055F8006169720A547572626F20436F6E74726FBC
:105608006C6C657200772061786973002E72657121
:105618007565737465645F737461746520007220C6
:10562800766275735F766F6C746167650A00506F98
:10563800746956616C3A3D000A546F727156616C18
:105648003A3D000A42617474563A3D00722061780E
:105658006973302E636F6E74726F6C6C65722E692D
:105668006E7075745F746F72717565203D200000EF
:00000001FF
